S013000041746D656C53656E6465722E73726563BD
S11300000C943A000C9457000C9457000C9457002D
S11300100C9457000C9457000C9457000C94570000
S11300200C9457000C9457000C9457000C945700F0
S11300300C9457000C9457000C9457000C945700E0
S11300400C9457000C9457000C9457000C945700D0
S11300500C9457000C9457000C9457000C945700C0
S11300600C9457000C9457006364696E6F70737539
S113007078585B0011241FBECFEFD4E0DEBFCDBFA4
S113008011E0A0E0B1E0EAEBFAE002C005900D92C5
S1130090AE39B107D9F721E0AEE9B1E001C01D9254
S11300A0A43AB207E1F70E94B0000C945B050C94EB
S11300B000002A9A2B9A2D98229A239A2498259AFA
S11300C00895AC012D982A9820E180E090E0552312
S11300D014F42B9A01C02B982D9A880F991F1C9900
S11300E081602D98440F551F215089F72A9A08954D
S11300F087ED90E80E94610089E392E80E94610024
S113010083EC94EA0E94610084ED94E90E9461000A
S113011080EA94E90E9461008CEA92EC0E946100FA
S113012081E89AEC0E94610083E894EC0E946100EB
S113013080E598E90E94610080E090EE0E946100F1
S113014080E098EC0E94610080E094EC0E946100E1
S113015008954A99FECF90E098540E946100089552
S1130160CF93DF93CDB7DEB764970FB6F894DEBFB5
S11301700FBECDBFF89414B81AB887E190E00E947E
S11301808A015C98389A40985C988EE091E00E94CD
S1130190C30183E090E02FEF3FE342E02150304081
S11301A04040E1F700C00000409A2FEF3FE342E0F7
S11301B0215030404040E1F700C0000040980197D2
S11301C051F740985C9A8FEF9FE322E08150904072
S11301D02040E1F700C000000E9459000E9478000E
S11301E0579A5F9A52986E013BE0C30ED11C02E409
S11301F011E0CE0101964C018DE191E00E94C30112
S1130200DF92CF921F930F930E94F301C6010E94C5
S11302109D01782E85E491E00E94C3019F928F9204
S11302201F930F930E94F301C4010E949D017C015E
S11302300FB6F894DEBF0FBECDBF82309105E0F655
S11302400F2EF3E0AF2EB12CF02D672C680E409AE0
S113025080E090E00E94610089E392E80E946100DE
S11302608AEA0E94A9008AEA0E94A9008AEA0E94F6
S1130270A9008DE20E94A90084ED0E94A9008E2DA0
S11302800E94A900872D0E94A900862D0E94A90022
S11302908AEA0E94A9008AEA0E94A9008AEA0E94C6
S11302A0A90081E092E80E94610040984FEF8FE539
S11302B093E0415080409040E1F700C0000021E00D
S11302C0A21AB10821F684E891E00E94C30194CFF8
S11302D0CF93C82F8A3019F48DE00E946801E0ECB6
S11302E0F0E0808185FFFDCFC093C60080E090E000
S11302F0CF910895CF93BC01E0ECF0E09081992375
S1130300ECF7C091C6008C2F0E9468018C2F90E0FE
S1130310CF9108959093C5008093C40088E18093A1
S1130320C10086E08093C200EEE9F1E080E091E054
S113033091838083938382830895FC01882799277E
S1130340E89421912032E9F3293010F02E30C8F3DB
S11303502B3241F02D3239F4689404C00E94BB0161
S1130360820F911D219120532A30C0F31EF49095E1
S113037081959F4F08957AE0979F902D879F802DB8
S1130380910D112408950F931F93CF93DF93E09160
S1130390A001F091A101238121FF1BC08C01D0E0B9
S11303A0C0E0F80181918F016091A0017091A101D9
S11303B0DB011896ED91FC911997882331F009958A
S11303C0892B79F3DFEFCFEFECCF8AE00995892B06
S11303D019F08FEF9FEF02C08D2F9C2FDF91CF91EB
S11303E01F910F910895A0E0B0E0E9EFF1E00C94C3
S11303F03405AE014B5F5F4FFA0161917191AF011A
S113040080919E0190919F010E94A503E2E00C94CB
S1130410500520FD09C0FC0123FD05C022FF02C0D8
S11304207383628351834083089544FD17C046FD5E
S113043017C0AB01BC01DA01FB01AA0FBB1FEE1F01
S1130440FF1F1094D1F74A0F5B1F6E1F7F1FCB0154
S1130450BA01660F771F881F991F09C033E001C0D6
S113046034E0660F771F881F991F3150D1F7620F50
S1130470711D811D911D08950F931F93CF93DF93D9
S11304808C01C8010E94CA04EC0197FD08C00E94B7
S1130490B604892BB1F7B801CE010E940805CE013C
S11304A0DF91CF911F910F9108958F929F92AF92F8
S11304B0BF92EF92FF920F931F93CF93DF938C0120
S11304C0D62F7A01B22E0E94CA049C0133272B3204
S11304D0310531F02D32310561F48B2D8068B82E51
S11304E0D15011F480E068C0C8010E94CA0497FD8D
S11304F0F9CFCB2DCD7F2B2D207309F58033F9F463
S1130500AA24AA94AD0E09F443C0C8010E94CA04E7
S113051097FD3EC09C012F7D33272835310549F4D2
S1130520C264D250A9F1C8010E94CA0497FF07C04F
S11305302FC0B6FE02C0C26001C0C261DA2D812C98
S1130540912C540120ED280F283080F0C4FF04C002
S1130550B8010E94080519C02A3040F0C6FFF8CF40
S11305602F7D3FEE320F363098F727504C2FC501C0
S1130570B4010E9415024B015C01C260D15059F0D4
S1130580C8010E94CA0497FFDDCFC1FD04C0AACFF1
S1130590812C912C5401C7FF08C0B094A09490946E
S11305A08094811C911CA11CB11C2C2FB501A401A9
S11305B0C7010E94090281E0DF91CF911F910F9141
S11305C0FF90EF90BF90AF909F908F900895A0E21E
S11305D0B0E0EDEEF2E00C9427055C01962E7A0172
S11305E0F9018E010F5F1F4F680180E2D8011D924F
S11305F08A95E9F7D50113968C9080E090E0612C00
S1130600712C30E061E070E083FC259183FE219140
S11306108F01522E211103C080E090E092C02E354C
S113062011F4009751F1432F50E0481759073CF457
S11306302D3559F12D3219F4772009F103C07720B3
S113064009F46AC0452D469546954695D601A40FF2
S1130650B11D452D47708B0102C0000F111F4A9533
S1130660E2F7A8015C91452B4C93651459F056149C
S113067010F45394E7CF5A94E5CF31E004C07724C3
S1130680739401C0712C0196BFCF772019F08E812D
S113069080628E83311103C08824839417C0F601CD
S11306A09E012F5D3F4F8081809581932E173F07D8
S11306B0D1F7F2CFE114F10429F0D7018C93F701BB
S11306C031967F019A94812C9920F9F0C5010E94FA
S11306D0CA0497FD18C0FC01FF2723E0F595E795B0
S11306E02A95E1F7EC0DFD1D208130E0AC01477047
S11306F0552702C0359527954A95E2F720FDDACFB4
S1130700B5010E940805811087CFE114F10411F0AE
S1130710D7011C92C80115C0422F469546954695AF
S1130720D601A40FB11D422F47708B0102C0000FE8
S1130730111F4A95E2F7A8015C91452B4C93622E58
S1130740A2CFA096EFE00C944305A0E0B0E0EBEA62
S1130750F3E00C9427056C01EB015A01FC011782AC
S11307601682512CF601E380FE01E3FC8591E3FE41
S11307708191182FEF01882309F4EEC090E00E94C4
S1130780B604892B21F0C6010E943C02EBCF15323E
S113079041F4FE01E3FC1591E3FE1191EF011532E2
S11307A081F4C6010E94CA0497FDD4C0412F50E0D1
S11307B09C01332724173507A9F2B6010E940805C6
S11307C0CBC01A3239F4E3FC1591E3FE1191EF0129
S11307D001E001C000E0F12C20ED210F2A3080F46B
S11307E002606F2D70E080E090E040E20E9415020C
S11307F0F62EFE01E3FC1591E3FE1191EF01ECCF1F
S113080001FF03C0F11003C0A7C0FF24FA941836F7
S113081019F01C3651F010C0FE01E3FC1591E3FE03
S11308201191EF01183641F408600460FE01E3FC05
S11308301591E3FE1191EF01112309F48DC0612F8D
S113084070E088E690E00E94BF04892B09F484C01C
S113085000FD07C0F50180809180C50102965C010E
S113086002C0812C912C1E3651F4F6014681578129
S113087060E070E0202FC4010E94090273CF133698
S1130880A9F401FD02C0FF24F394C6010E94CA0426
S113089097FD60C08114910429F0F4018083C401A0
S11308A001964C01FA94F110F0CF50C01B3559F465
S11308B09E01A4016F2DC6010E94E702EC01892B61
S11308C009F044C03EC0C6010E943C0297FD42C0EC
S11308D01F3661F128F4143639F1193651F128C064
S11308E0133771F0153701F123C08114910429F0F5
S11308F0F4016082C40101964C01FA94FF2071F066
S1130900C6010E94CA043C0197FD08C00E94B604B7
S1130910892B59F3B601C3010E940805811491047F
S1130920A9F0F401108212C0006203C0006101C08A
S11309300064202FA4016F2DC6010E94550281116D
S113094005C0F6018381807329F406C000FD0ACF37
S1130950539408CF552019F0852D90E002C08FEFF5
S11309609FEFCDB7DEB7EFE00C94430591110C94E3
S11309702105803219F089508550C8F70895FC018B
S11309800590061621F00020D9F7C001089531978B
S1130990CF010895CF93DF93EC012B8120FF33C067
S11309A026FF0AC02F7B2B838E819F8101969F8314
S11309B08E838A8190E029C022FF0FC0E881F981EB
S11309C08081082E000C990B009719F420622B8368
S11309D01AC03196F983E8830EC0EA85FB85099530
S11309E097FF09C02B81019611F080E201C080E1DC
S11309F0822B8B8308C02E813F812F5F3F4F3F8323
S1130A002E83992702C08FEF9FEFDF91CF91089536
S1130A10FB01238120FF12C026FD10C08F3F3FEF52
S1130A20930761F082832F7D20642383268137819D
S1130A302150310937832683992708958FEF9FEF3B
S1130A4008959927882708952F923F924F925F9295
S1130A506F927F928F929F92AF92BF92CF92DF92CA
S1130A60EF92FF920F931F93CF93DF93CDB7DEB72F
S1130A70CA1BDB0B0FB6F894DEBF0FBECDBF0994C3
S1130A802A88398848885F846E847D848C849B841A
S1130A90AA84B984C884DF80EE80FD800C811B8128
S1130AA0AA81B981CE0FD11D0FB6F894DEBF0FBE57
S10D0AB0CDBFED010895F894FFCFC7
S1130ABA000000030000000068017A0100005246A9
S1130ACA4D3132205472616E736D697400476562E8
S1130ADA6520494420646572207A752053746575CB
S1130AEA65726E64656E20416D70656C2065696E11
S1130AFA2E002573006765626520273027206F64FE
S1130B0A65722027312720696E20646965204B6F3E
S1130B1A6E736F6C652065696E2C20756D2064692F
S1130B2A6520416D70656C207A75207374657565EE
S1130B3A726E2E005374657565727369676E616CA3
S1110B4A20756562657274726167656E2100C4
S9030000FC
