S01600004763634170706C69636174696F6E2E737265638D
S11300000C9434000C943E000C943E000C943E007E
S11300100C943E000C943E000C943E000C943E0064
S11300200C943E000C943E000C943E000C943E0054
S11300300C943E000C943E000C943E000C943E0044
S11300400C943E000C943E000C943E000C943E0034
S11300500C943E000C943E000C943E000C943E0024
S11300600C943E000C943E0011241FBECFEFD4E04C
S1130070DEBFCDBF0E9497000C94C3000C94000017
S113008080E480937C00EAE7F0E083E08083808171
S113009080688083808180648083808186FDFDCF39
S11300A080917800909179000895ECE7F0E09081D8
S11300B0907E8F71892B8083EAE7F0E080818064F1
S11300C08083808186FDFDCF8091780090917900B6
S11300D00895CF92DF92EF92FF921F93CF93DF9315
S11300E0182FD62F662379F0C0E0C12CD12C7601CD
S11300F0812F0E945500C80ED91EE11CF11CCF5F50
S1130100DC13F6CF03C0C12CD12C76012D2F30E0A7
S113011040E050E0C701B6010E94A100C901DF918F
S1130120CF911F91FF90EF90DF90CF9008950E94A0
S1130130400080E00E94550064E082E00E94690073
S1130140F8CFA1E21A2EAA1BBB1BFD010DC0AA1FEA
S1130150BB1FEE1FFF1FA217B307E407F50720F02C
S1130160A21BB30BE40BF50B661F771F881F991FA7
S11301701A9469F760957095809590959B01AC01F0
S10D0180BD01CF010895F894FFCFEC
S9030000FC
