S00D00004D43505F312E73726563A7
S11300000C943A000C94F4010C940B020C945700D9
S11300100C9457000C9457000C9457000C94570000
S11300200C9457000C9457000C9457000C945700F0
S11300300C9457000C9457000C9457000C945700E0
S11300400C9457000C9457000C9457000C945700D0
S11300500C9457000C9457000C9457000C945700C0
S11300600C9457000C9457006364696E6F70737539
S113007078585B0011241FBECFEFD4E0DEBFCDBFA4
S113008012E0A0E0B1E0ECE7F1E102C005900D92CE
S1130090A238B107D9F722E0A2E8B2E001C01D926C
S11300A0A239B207E1F70E9439010C94BC080C9400
S11300B00000EF92FF920F931F93CF93DF93EC0115
S11300C08EE091E09F938F930E947D020F900F909A
S11300D01C161D0604F507E211E00F2EF6ECEF2EB8
S11300E0F12CF02DDF93CF931F930F930E947D0289
S11300F09FEFEFE3FBE09150E040F040E1F700C0F8
S11301000000F70180810F900F900F900F908336BD
S113011049F0219739F78FE291E00E94930281E040
S113012090E002C080E090E0DF91CF911F910F91A9
S1130130FF90EF900895AF92BF92CF92DF92EF922B
S1130140FF920F931F93CF93DF93CDB7DEB7C456BF
S1130150D1090FB6F894DEBF0FBECDBF1A82198243
S1130160FE01339682E6DF011D928A95E9F70F2E90
S1130170F9E3CF2EF1E0DF2EF02D8E010F5F1F4F3C
S11301800F2EF8E5EF2EF1E0FF2EF02D0F2EFBE5FC
S1130190AF2EF1E0BF2EF02DDF92CF920E947D02B0
S11301A01F930F93FF92EF920E94C302F8010190F4
S11301B00020E9F731979F01201B310B0F900F901E
S11301C00F900F900F900F9012161306CCF48981A4
S11301D090E0C0970A9768F005C0819190E0C097BD
S11301E00A9758F0BF92AF920E947D020F900F9031
S11301F0D3CFFE013296200F311FE217F30769F7C0
S1130200CE0101960E9457029F938F9380E791E05D
S11302109F938F930E947D02CE0101960E94570204
S11302200F900F900F900F90CC59DF4F0FB6F894AA
S1130230DEBF0FBECDBFDF91CF911F910F91FF9015
S1130240EF90DF90CF90BF90AF9008958DE891E04C
S11302500E949302E6ECF0E003C08081833631F023
S113026080818337D1F781E090E0089580E090E0C9
S1130270089587E190E00E944402E9E6F0E080817D
S11302808360808380818C6080838DB383608DBB29
S11302907894C6ECD0E009E112E00F2EF6E6EF2EDA
S11302A0F2E0FF2EF02D0E949B00019690938902AC
S11302B08093880290938B0280938A0290938302A6
S11302C080938202909387028093860290938502A2
S11302D0809384020E942601892B29F385E090E013
S11302E00E945900892BF9F27AC080918A02909178
S11302F08B0220918602309187020197821793071F
S113030089F5809186029091870290938B02809365
S11303108A02809184029091850220918602309114
S1130320870201978217930721F487EE91E00E94D8
S113033093028091860290918702892B29F481E0AF
S113034092E00E949302AFCF80918602909187023F
S11303509F938F931F930F930E947D020F900F9092
S11303600F900F90809188029091890220918202CF
S11303703091830201978217930789F58091820255
S113038090918302909389028093880280918402E1
S11303909091850220918202309183020197821705
S11303A0930721F484E392E00E94930280918202F5
S11303B090918302892B29F48EE492E00E949302A7
S11303C072CF80918202909183029F938F93FF92C8
S11303D0EF920E947D020F900F900F900F908881F2
S11303E0833609F082CF5FCF1F920F920FB60F9220
S11303F011248F939F9380918A0290918B0201978D
S113040090938702809386029F918F910F900FBEE5
S11304100F901F9018951F920F920FB60F921124F0
S11304208F939F9380918802909189020197909372
S11304308302809382029F918F910F900FBE0F9041
S11304401F901895CF93C82F8A3019F48DE00E941D
S11304502202E0ECF0E0808185FFFDCFC093C6006E
S113046080E090E0CF910895CF93BC01E0ECF0E000
S113047090819923ECF7C091C6008C2F0E94220230
S11304808C2F90E0CF9108959093C5008093C40081
S113049088E18093C10086E08093C200ECE8F2E03A
S11304A080E091E091838083938382830895FC01AB
S11304B088279927E89421912032E9F3293010F014
S11304C02E30C8F32B3241F02D3239F4689404C035
S11304D00E947502820F911D219120532A30C0F38E
S11304E01EF4909581959F4F08957AE0979F902DE3
S11304F0879F802D910D11240895A0E0B0E0E3E8DA
S1130500F2E00C949508AE014B5F5F4FFA016191E4
S11305107191AF0180918E0290918F020E94D90255
S1130520E2E00C94B1080F931F93CF93DF93E09113
S11305308E02F0918F02238121FF1BC08C01D0E039
S1130540C0E0F80181918F0160918E0270918F0259
S1130550DB011896ED91FC911997882331F00995E8
S1130560892B79F3DFEFCFEFECCF8AE00995892B64
S113057019F08FEF9FEF02C08D2F9C2FDF91CF9149
S11305801F910F910895A0E0B0E0E9ECF2E00C9423
S11305909508AE014B5F5F4FFA0161917191AF0114
S11305A080918C0290918D020E945606E2E00C9498
S11305B0B108ABE0B0E0EFEDF2E00C9485086C011B
S11305C07B018A01FC0117821682838181FFCCC1E1
S11305D0CE0101963C01F6019381F70193FD8591CB
S11305E093FF81917F01882309F4BAC1853239F4DC
S11305F093FD859193FF81917F01853229F4B601A2
S113060090E00E94CF07E7CF912C212C312CFFE101
S1130610F315D8F08B3279F038F4803279F08332E4
S1130620A1F4232D20611DC08D3261F0803369F463
S1130630232D216016C0832D8260382EE32DE460C3
S11306403E2E2AC0F32DF8601DC037FC2DC020EDCE
S1130650280F2A3040F08E32B9F436FC81C1232DA4
S11306602064322E19C036FE06C08AE0989E200D02
S11306701124922E11C0EAE02E9E200D1124222E68
S1130680F32DF0623F2E08C08C3621F4832D806850
S1130690382E02C0883641F4F70193FD859193FF0B
S11306A081917F018111B3CF982F9F7D9554933011
S11306B028F40C5F1F4F9FE399830DC0833631F0FC
S11306C0833771F0833509F059C021C0F801808166
S11306D089830E5F1F4F88248394912C530113C088
S11306E02801F2E04F0E511CF801A080B18036FEC3
S11306F003C0692D70E002C06FEF7FEFC5010E9457
S113070086074C018201F32DFF773F2E16C0280186
S113071022E0420E511CF801A080B18036FE03C0D5
S1130720692D70E002C06FEF7FEFC5010E947B0767
S11307304C01F32DF0683F2E820133FC1BC0822D47
S113074090E088169906B0F4B60180E290E00E9429
S1130750CF072A94F4CFF50137FC859137FE8191B8
S11307605F01B60190E00E94CF0721102A9421E096
S1130770821A91088114910471F7E8C0843611F04B
S1130780893641F5F80137FE07C0608171818281A5
S113079093810C5F1F4F08C060817181072E000C8C
S11307A0880B990B0E5F1F4FF32DFF763F2E97FF9B
S11307B009C090958095709561957F4F8F4F9F4F9D
S11307C0F0683F2E2AE030E0A3010E942408882E1E
S11307D0861845C0853731F4232D2F7EB22E2AE0AA
S11307E030E025C0932D997FB92E8F36C1F018F4CF
S11307F0883579F0B5C0803719F0883721F0B0C05A
S1130800E92FE061BE2EB4FE0DC0FB2DF460BF2EB7
S113081009C034FE0AC0292F2660B22E06C028E083
S113082030E005C020E130E002C020E132E0F80110
S1130830B7FE07C060817181828193810C5F1F4F75
S113084006C06081718180E090E00E5F1F4FA301BC
S11308500E942408882E8618FB2DFF773F2E36FE33
S11308600DC0232D2E7FA22E891458F434FE0BC004
S113087032FC09C0832D8E7EA82E05C0B82CA32C73
S113088003C0B82C01C0B92CA4FE0FC0FE01E80DB2
S1130890F11D8081803321F49A2D997EA92E09C0FF
S11308A0A2FE06C0B394B39404C08A2D867809F0DE
S11308B0B394A3FC11C0A0FE06C0B21488F4280CA3
S11308C0922C9B180EC0B21460F4B60180E290E042
S11308D00E94CF07B394F7CFB21418F42B1802C0B8
S11308E0982C212CA4FE10C0B60180E390E00E9455
S11308F0CF07A2FE17C0A1FC03C088E790E002C0A6
S113090088E590E0B6010CC08A2D867859F0A1FEE6
S113091002C08BE201C080E2A7FC8DE2B60190E048
S11309200E94CF07891438F4B60180E390E00E9456
S1130930CF079A94F7CF8A94F301E80DF11D8081D3
S1130940B60190E00E94CF078110F5CF222009F470
S113095042CEB60180E290E00E94CF072A94F6CFFF
S1130960F6018681978102C08FEF9FEF2B96E2E11B
S11309700C94A10820FD09C0FC0123FD05C022FF41
S113098002C07383628351834083089544FD17C07A
S113099046FD17C0AB01BC01DA01FB01AA0FBB1F66
S11309A0EE1FFF1F1094D1F74A0F5B1F6E1F7F1FAE
S11309B0CB01BA01660F771F881F991F09C033E066
S11309C001C034E0660F771F881F991F3150D1F79B
S11309D0620F711D811D911D08950F931F93CF9375
S11309E0DF938C01C8010E949107EC0197FD08C0B8
S11309F00E946707892BB1F7B801CE010E940B084A
S1130A00CE01DF91CF911F910F9108958F929F9204
S1130A10AF92BF92EF92FF920F931F93CF93DF9306
S1130A208C01D62F7A01B22E0E9491079C013327A4
S1130A302B32310531F02D32310561F48B2D806874
S1130A40B82ED15011F480E068C0C8010E9491070B
S1130A5097FDF9CFCB2DCD7F2B2D207309F5803356
S1130A60F9F4AA24AA94AD0E09F443C0C8010E9463
S1130A70910797FD3EC09C012F7D33272835310512
S1130A8049F4C264D250A9F1C8010E94910797FFAA
S1130A9007C02FC0B6FE02C0C26001C0C261DA2D19
S1130AA0812C912C540120ED280F283080F0C4FFB4
S1130AB004C0B8010E940B0819C02A3040F0C6FFD8
S1130AC0F8CF2F7D3FEE320F363098F727504C2F5A
S1130AD0C501B4010E94C6044B015C01C260D1503F
S1130AE059F0C8010E94910797FFDDCFC1FD04C0F2
S1130AF0AACF812C912C5401C7FF08C0B094A094B4
S1130B0090948094811C911CA11CB11C2C2FB501C4
S1130B10A401C7010E94BA0481E0DF91CF911F9123
S1130B200F91FF90EF90BF90AF909F908F9008959A
S1130B30A0E2B0E0EEE9F5E00C9488085C01962EA2
S1130B407A01F9018E010F5F1F4F680180E2D8011D
S1130B501D928A95E9F7D50113968C9080E090E078
S1130B60612C712C30E061E070E083FC259183FE00
S1130B7021918F01522E211103C080E090E092C098
S1130B802E3511F4009751F1432F50E048175907BF
S1130B903CF42D3559F12D3219F4772009F103C0B5
S1130BA0772009F46AC0452D469546954695D601A9
S1130BB0A40FB11D452D47708B0102C0000F111FFA
S1130BC04A95E2F7A8015C91452B4C93651459F0C2
S1130BD0561410F45394E7CF5A94E5CF31E004C08F
S1130BE07724739401C0712C0196BFCF772019F03C
S1130BF08E8180628E83311103C08824839417C050
S1130C00F6019E012F5D3F4F8081809581932E17C1
S1130C103F07D1F7F2CFE114F10429F0D7018C9307
S1130C20F70131967F019A94812C9920F9F0C5013E
S1130C300E94910797FD18C0FC01FF2723E0F5955A
S1130C40E7952A95E1F7EC0DFD1D208130E0AC011C
S1130C504770552702C0359527954A95E2F720FD40
S1130C60DACFB5010E940B08811087CFE114F1049B
S1130C7011F0D7011C92C80115C0422F4695469524
S1130C804695D601A40FB11D422F47708B0102C0B7
S1130C90000F111F4A95E2F7A8015C91452B4C9374
S1130CA0622EA2CFA096EFE00C94A408A0E0B0E0DE
S1130CB0ECE5F6E00C9488086C01EB015A01FC01A8
S1130CC017821682512CF601E380FE01E3FC859124
S1130CD0E3FE8191182FEF01882309F4EEC090E020
S1130CE00E946707892B21F0C6010E94ED04EBCF17
S1130CF0153241F4FE01E3FC1591E3FE1191EF017D
S1130D00153281F4C6010E94910797FDD4C0412F8A
S1130D1050E09C01332724173507A9F2B6010E943D
S1130D200B08CBC01A3239F4E3FC1591E3FE1191A0
S1130D30EF0101E001C000E0F12C20ED210F2A3089
S1130D4080F402606F2D70E080E090E040E20E9449
S1130D50C604F62EFE01E3FC1591E3FE1191EF01AA
S1130D60ECCF01FF03C0F11003C0A7C0FF24FA9425
S1130D70183619F01C3651F010C0FE01E3FC159131
S1130D80E3FE1191EF01183641F408600460FE019E
S1130D90E3FC1591E3FE1191EF01112309F48DC0D9
S1130DA0612F70E088E690E00E947007892B09F4B7
S1130DB084C000FD07C0F50180809180C5010296C2
S1130DC05C0102C0812C912C1E3651F4F60146813F
S1130DD0578160E070E0202FC4010E94BA0473CFF1
S1130DE01336A9F401FD02C0FF24F394C6010E9446
S1130DF0910797FD60C08114910429F0F401808368
S1130E00C40101964C01FA94F110F0CF50C01B3587
S1130E1059F49E01A4016F2DC6010E949805EC01AE
S1130E20892B09F044C03EC0C6010E94ED0497FD21
S1130E3042C01F3661F128F4143639F1193651F1E4
S1130E4028C0133771F0153701F123C081149104C0
S1130E5029F0F4016082C40101964C01FA94FF2048
S1130E6071F0C6010E9491073C0197FD08C00E94E1
S1130E706707892B59F3B601C3010E940B0881143B
S1130E809104A9F0F401108212C0006203C0006151
S1130E9001C00064202FA4016F2DC6010E94060525
S1130EA0811105C0F6018381807329F406C000FD19
S1130EB00ACF539408CF552019F0852D90E002C035
S1130EC08FEF9FEFCDB7DEB7EFE00C94A40891113C
S1130ED00C948208803219F089508550C8F708951F
S1130EE0FC010590061621F00020D9F7C0010895F1
S1130EF03197CF010895FC010590615070400110B5
S1130F00D8F7809590958E0F9F1F0895FC0161502E
S1130F10704001900110D8F7809590958E0F9F1F17
S1130F200895CF93DF93EC012B8120FF33C026FF7C
S1130F300AC02F7B2B838E819F8101969F838E8392
S1130F408A8190E029C022FF0FC0E881F981808165
S1130F50082E000C990B009719F420622B831AC0F9
S1130F603196F983E8830EC0EA85FB85099597FFDE
S1130F7009C02B81019611F080E201C080E1822B2F
S1130F808B8308C02E813F812F5F3F4F3F832E8389
S1130F90992702C08FEF9FEFDF91CF9108950F93B0
S1130FA01F93CF93DF93FB01238121FD03C08FEFB8
S1130FB09FEF2CC022FF16C04681578124813581C2
S1130FC04217530744F4A081B1819D012F5F3F4F25
S1130FD0318320838C93268137812F5F3F4F378362
S1130FE0268314C08B01EC01FB010084F185E02D04
S1130FF00995892BE1F6D80116968D919C91179746
S1131000019617969C938E931697CE01DF91CF91FC
S11310101F910F910895FB01238120FF12C026FD2B
S113102010C08F3F3FEF930761F082832F7D2064D0
S113103023832681378121503109378326839927D9
S113104008958FEF9FEF0895FA01AA27283051F1F0
S1131050203181F1E8946F936E7F6E5F7F4F8F4FE5
S11310609F4FAF4FB1E03ED0B4E03CD0670F781F44
S1131070891F9A1FA11D680F791F8A1F911DA11D29
S11310806A0F711D811D911DA11D20D009F4689462
S11310903F912AE0269F11243019305D3193DEF60A
S11310A0CF010895462F4770405D4193B3E00FD0C0
S11310B0C9F7F6CF462F4F70405D4A3318F0495DAB
S11310C031FD4052419302D0A9F7EACFB4E0A6958E
S11310D09795879577956795BA95C9F700976105B0
S11310E0710508959B01AC010A2E06945795479506
S11310F037952795BA95C9F7620F731F841F951FFB
S1131100A01D08959927882708952F923F924F9202
S11311105F926F927F928F929F92AF92BF92CF9283
S1131120DF92EF92FF920F931F93CF93DF93CDB78C
S1131130DEB7CA1BDB0B0FB6F894DEBF0FBECDBF04
S113114009942A88398848885F846E847D848C84D5
S11311509B84AA84B984C884DF80EE80FD800C81DE
S11311601B81AA81B981CE0FD11D0FB6F894DEBFC1
S10F11700FBECDBFED010895F894FFCF31
S113117C000000030000000022023402000044615D
S113118C732052656E6E656E20537461727465744F
S113119C20696E2E2E2E000A092E2E2E2569000A89
S11311AC094C204F20532021000A476562656E20AC
S11311BC736965206469652052756E64656E7A6125
S11311CC686C2065696E3A002573000A756E677544
S11311DC656C746967652045696E67616265210099
S11311EC0A45696E2052656E6E656E20676568747B
S11311FC2025692052756E64656E210A000A4472BA
S113120C7565636B65202773272C20756D206461CD
S113121C732052656E6E656E207A752053746172FC
S113122C74656E210A44727565636B6520276327A8
S113123C2C20756D20646173206C617566656E6419
S113124C652052656E6E656E2061627A7562726598
S113125C6368656E210A00537075722031202D204D
S113126C52656E6E656E2067657374617274657415
S113127C00537075722031202D2052656E6E656E90
S113128C206265656E64657400537069656C657283
S113129C2031206E6F63683A2025692052756E6484
S11312AC656E0A00537075722032202D2052656EC3
S11312BC6E656E2067657374617274657400537027
S11312CC75722032202D2052656E6E656E2062651B
S11312DC656E64657400537069656C6572203220A8
S11312EC6E6F63683A2025692052756E64656E0AC8
S10512FC0000EC
S9030000FC
