S00F000054696D65725F322E7372656383
S11300000C9434000C9446000C9446000C9481002B
S11300100C9446000C9446000C9446000C94460044
S11300200C9446000C9446000C9446000C945F001B
S11300300C9446000C9446000C9446000C94460024
S11300400C9446000C9446000C9446000C94460014
S11300500C9446000C9446000C9446000C94460004
S11300600C9446000C94460011241FBECFEFD4E03C
S1130070DEBFCDBF21E0A0E0B1E001C01D92A13000
S1130080B207E1F70E9448000C948B000C94000026
S1130090EFE6F0E0808182608083E1E8F0E088E0D0
S11300A0808388E99EEF909385008093840085E0A7
S11300B0808384B18F6084B9289A7894FFCF1F928B
S11300C00F920FB60F9211248F939F9388E99EEF9E
S11300D0909385008093840080910001843630F4ED
S11300E0809100018F5F8093000104C095B187E087
S11300F0892785B99F918F910F900FBE0F901F9004
S113010018951F920F920FB60F9211240F900FBEE5
S10D01100F901F901895F894FFCF8C
S9030000FC
