S01200004D43505F32416D70656C2E73726563B2
S11300000C9434000C9446000C9446000C94AA0002
S11300100C9446000C9446000C9446000C94460044
S11300200C9446000C9446000C9446000C946D000D
S11300300C9446000C9446000C9446000C94460024
S11300400C9446000C9446000C9446000C94460014
S11300500C9446000C9446000C9446000C94460004
S11300600C9446000C94460011241FBECFEFD4E03C
S1130070DEBFCDBF21E0A0E0B1E001C01D92A13000
S1130080B207E1F70E9448000C94C1000C940000F0
S1130090EFE6F0E0808182608083E1E8F0E088E0D0
S11300A0808380EF91EF909385008093840085E0B6
S11300B0808387B18F6187B98CE088B988B920982B
S11300C0289AE8E6F0E0808181608083EBE6F0E046
S11300D08081816080837894FFCF1F920F920FB646
S11300E00F9211248F939F93809100018F5F8093CF
S11300F0000180EF91EF90938500809384008091BC
S11301000001803199F028F48E3051F08F3059F08D
S11301101AC08A3189F08B3191F08531A1F409C07C
S11301208AE088B910C089E088B90DC081E188B936
S11301300AC089E088B907C08BE088B904C08CE0A4
S113014088B9109200019F918F910F900FBE0F906C
S11301501F9018951F920F920FB60F9211248F9330
S1130160809100018D3020F0809100018B3118F0D6
S11301708DE0809300018F910F900FBE0F901F9020
S10901801895F894FFCF6E
S9030000FC
