S01200004D43505F32416D70656C2E73726563B2
S11300000C9434000C9451000C9451000C94B600E0
S11300100C9451000C9451000C9451000C94510018
S11300200C9451000C9451000C9451000C947900E0
S11300300C9451000C9451000C9451000C945100F8
S11300400C9451000C9451000C9451000C945100E8
S11300500C9451000C9451000C9451000C945100D8
S11300600C9451000C94510011241FBECFEFD4E026
S1130070DEBFCDBF11E0A0E0B1E0EEE9F1E002C0E7
S113008005900D92A030B107D9F721E0A0E0B1E0CE
S113009001C01D92A130B207E1F70E9453000C94F5
S11300A0CD000C940000EFE6F0E080818260808354
S11300B0E1E8F0E088E0808380EF91EF90938500A1
S11300C0809384001092800085E0808387B18F61E3
S11300D087B98CE088B92098289AE8E6F0E0808116
S11300E081608083EBE6F0E0808181608083789496
S11300F0FFCF1F920F920FB60F9211248F939F93ED
S1130100809100018F5F8093000180EF91EF9093C5
S113011085008093840080910001803199F028F457
S11301208E3051F08F3059F01AC08A3189F08B31FA
S113013091F08531A1F409C08AE088B910C089E042
S113014088B90DC081E188B90AC089E088B907C0BF
S11301508BE088B904C08CE088B9109200019F91AB
S11301608F910F900FBE0F901F9018951F920F92B2
S11301700FB60F9211248F93809100018F3020F0DD
S1130180809100018A3118F08DE0809300018F91F5
S11101900F900FBE0F901F901895F894FFCF9C
S9030000FC
