S0180000426C696E6B796C6175665F72757074792E7372656358
S11300000C9434000C946A000C949F000C944600E9
S11300100C9446000C9446000C9446000C94460044
S11300200C9446000C9446000C9446000C94460034
S11300300C9446000C9446000C9446000C94460024
S11300400C94A9000C9446000C94B3000C94460044
S11300500C9446000C9446000C9446000C94460004
S11300600C9446000C94460011241FBECFEFD4E03C
S1130070DEBFCDBF21E0A0E0B1E001C01D92A230FF
S1130080B207E1F70E9448000C94BD000C940000F4
S113009084B1876084B952985A9AE9E6F0E0808185
S11300A08360808385B1887F85B91092010181E0E6
S11300B0809300013091010125B181E090E002C0FC
S11300C0880F991F3A95E2F7822B85B9E09AE89A4E
S11300D07894FFCF1F920F920FB60F9211242F9393
S11300E08F939F939091000180910101890F8093D8
S11300F001018091010183303CF081E08093010192
S11301008FEF8093000109C08091010188232CF4B2
S113011081E080930101809300012091010181E03D
S113012090E002C0880F991F2A95E2F785B99F9144
S11301308F912F910F900FBE0F901F9018951F92C3
S11301400F920FB60F9211240F900FBE0F901F90B5
S113015018951F920F920FB60F9211240F900FBE95
S11301600F901F9018951F920F920FB60F921124A3
S11101700F900FBE0F901F901895F894FFCFBC
S9030000FC
