S01700004763634170706C69636174696F6E322E737265635A
S11300000C9434000C943E000C943E000C943E007E
S11300100C943E000C943E000C943E000C943E0064
S11300200C943E000C943E000C943E000C943E0054
S11300300C943E000C943E000C943E000C943E0044
S11300400C943E000C943E000C943E000C943E0034
S11300500C943E000C943E000C943E000C943E0024
S11300600C943E000C943E0011241FBECFEFD4E04C
S1130070DEBFCDBF0E9440000C9474000C940000BD
S1130080CF93DF9300D0CDB7DEB784E290E024E2D3
S113009030E0F90120812760FC012083198281E08E
S11300A08A8385E290E02981422F220F550B21E0BB
S11300B030E002C0220F331F4A95E2F7FC0120838F
S11300C099818A81890F8983898183302CF081E029
S11300D089838FEF8A83E5CF8981882314F781E0B0
S10F00E0898381E08A83DDCFF894FFCF90
S9030000FC
