S016000041746D656C456D7066656E6465722E7372656385
S11300000C9434000C9451000C9451000C94510045
S11300100C9451000C9491010C9451000C945100D7
S11300200C9451000C9451000C9451000C94450113
S11300300C9451000C9451000C9451000C945100F8
S11300400C9451000C9451000C9451000C945100E8
S11300500C9451000C9451000C9451000C945100D8
S11300600C9451000C94510011241FBECFEFD4E026
S1130070DEBFCDBF11E0A0E0B1E0E8EEF9E002C0E0
S113008005900D92A836B107D9F721E0A8E6B1E0B2
S113009001C01D92AF36B207E1F70E94B5000C947F
S11300A0F2040C9400002A9A2B9A2D985F9A229AB3
S11300B0239A2498259A5298579A0895AC012D981A
S11300C02A9820E180E090E0552314F42B9A01C093
S11300D02B982D9A880F991F1C9981602D98440F95
S11300E0551F215089F72A9A089587ED90E80E94B8
S11300F05E0089ED92E80E945E0083EC94EA0E941F
S11301005E0087E496EC0E945E0084ED94E90E9410
S11301105E0080EA94E90E945E008CEA92EC0E9400
S11301205E0081E89AEC0E945E0083E894EC0E94F1
S11301305E0080E598E90E945E0080E090EE0E94F7
S11301405E0080E098EC0E945E0080E094EC0E94E7
S11301505E0008954A99FECF80E090E00E945E0020
S113016080E090EB0E945E00089587E190E00E9499
S1130170CA015C985C988FE091E00E94FA015C9A55
S11301802FEF8FE392E0215080409040E1F700C0D0
S113019000000E9453000E94750081E89AEC0E94BE
S11301A05E00EFE6F0E0808182608083E1E8F0E0C9
S11301B088E0808380EF91EF9093850080938400A2
S11301C085E0808387B18F6187B98CE088B95698C0
S11301D05E9AE8E6F0E080818460808380E4809326
S11301E06D0078940DE111E00F2EF4E5CF2EF1E0CF
S11301F0DF2EF02D0F2EFCE2AF2EF1E0BF2EF02DFE
S113020083E89AEC0E945E000E94AA00D82F0E9404
S1130210AA00C82F0E94AA00E82EFD2EFC0E81E839
S11302209AEC0E945E001F92DF931F92CF931F935C
S11302300F930E94DD010F900F900F900F900F907D
S11302400F90EF1017C0CB30A9F4D23098F4D093AC
S113025000011F92DF93BF92AF920E94DD018FEFE6
S113026093E20197F1F700C000000F900F900F90F8
S11302700F9006C0DF92CF920E94DD010F900F9085
S11302808AE090E00E94F301BBCF1F920F920FB659
S11302900F9211248F939F9380EF91EF9093850099
S11302A08093840080910001882351F1809168013A
S11302B08F5F8093680180916801803199F028F400
S11302C08E3051F08F3059F025C08A3189F08B314E
S11302D091F08531F9F409C08AE088B91BC089E03E
S11302E088B918C081E188B915C089E088B912C0FD
S11302F08BE088B90FC08CE088B9109268010AC0FD
S113030084E18093680188B1827088B998B182E0F1
S1130310892788B99F918F910F900FBE0F901F90DE
S113032018951F920F920FB60F9211248F938091FC
S113033068018D3020F0809168018B3118F08DE0D8
S1130340809368018F910F900FBE0F901F901895A6
S1130350CF93C82F8A3019F48DE00E94A801E0ECF5
S1130360F0E0808185FFFDCFC093C60080E090E07F
S1130370CF910895CF93BC01E0ECF0E090819923F4
S1130380ECF7C091C6008C2F0E94A8018C2F90E03E
S1130390CF9108959093C5008093C40088E1809321
S11303A0C10086E08093C200E9E6F1E081E091E0DB
S11303B091838083938382830895A0E0B0E0E3EE89
S11303C0F1E00C94CB04AE014B5F5F4FFA016191F5
S11303D07191AF0180916B0190916C010E942A028E
S11303E0E2E00C94E70460916B0170916C010E944F
S11303F0210408950F931F93CF93DF93E0916B0132
S1130400F0916C01238121FF1BC08C01D0E0C0E07E
S1130410F80181918F0160916B0170916C01DB0196
S11304201896ED91FC911997882331F00995892B41
S113043079F3DFEFCFEFECCF8AE00995892B19F040
S11304408FEF9FEF02C08D2F9C2FDF91CF911F91D3
S11304500F910895ABE0B0E0E0E3F2E00C94BB044C
S11304606C017B018A01FC0117821682838181FF62
S1130470CCC1CE0101963C01F6019381F70193FDB5
S1130480859193FF81917F01882309F4BAC1853254
S113049039F493FD859193FF81917F01853229F48D
S11304A0B60190E00E942104E7CF912C212C312C3D
S11304B0FFE1F315D8F08B3279F038F4803279F01B
S11304C08332A1F4232D20611DC08D3261F080336D
S11304D069F4232D216016C0832D8260382EE32D0C
S11304E0E4603E2E2AC0F32DF8601DC037FC2DC0F9
S11304F020ED280F2A3040F08E32B9F436FC81C149
S1130500232D2064322E19C036FE06C08AE0989E40
S1130510200D1124922E11C0EAE02E9E200D1124EC
S1130520222EF32DF0623F2E08C08C3621F4832D49
S11305308068382E02C0883641F4F70193FD859116
S113054093FF81917F018111B3CF982F9F7D9554A3
S1130550933028F40C5F1F4F9FE399830DC08336BB
S113056031F0833771F0833509F059C021C0F801A7
S1130570808189830E5F1F4F88248394912C5301BB
S113058013C02801F2E04F0E511CF801A080B18085
S113059036FE03C0692D70E002C06FEF7FEFC50126
S11305A00E9416044C018201F32DFF773F2E16C0E2
S11305B0280122E0420E511CF801A080B18036FED1
S11305C003C0692D70E002C06FEF7FEFC5010E9488
S11305D00B044C01F32DF0683F2E820133FC1BC049
S11305E0822D90E088169906B0F4B60180E290E07E
S11305F00E9421042A94F4CFF50137FC859137FE3B
S113060081915F01B60190E00E94210421102A9497
S113061021E0821A91088114910471F7E8C08436AC
S113062011F0893641F5F80137FE07C06081718108
S1130630828193810C5F1F4F08C060817181072EF6
S1130640000C880B990B0E5F1F4FF32DFF763F2E86
S113065097FF09C090958095709561957F4F8F4F56
S11306609F4FF0683F2E2AE030E0A3010E945D0412
S1130670882E861845C0853731F4232D2F7EB22E5F
S11306802AE030E025C0932D997FB92E8F36C1F032
S113069018F4883579F0B5C0803719F0883721F01F
S11306A0B0C0E92FE061BE2EB4FE0DC0FB2DF46096
S11306B0BF2E09C034FE0AC0292F2660B22E06C000
S11306C028E030E005C020E130E002C020E132E063
S11306D0F801B7FE07C060817181828193810C5F4C
S11306E01F4F06C06081718180E090E00E5F1F4F54
S11306F0A3010E945D04882E8618FB2DFF773F2EF0
S113070036FE0DC0232D2E7FA22E891458F434FEFC
S11307100BC032FC09C0832D8E7EA82E05C0B82CD8
S1130720A32C03C0B82C01C0B92CA4FE0FC0FE0139
S1130730E80DF11D8081803321F49A2D997EA92E34
S113074009C0A2FE06C0B394B39404C08A2D86786F
S113075009F0B394A3FC11C0A0FE06C0B21488F43F
S1130760280C922C9B180EC0B21460F4B60180E2DF
S113077090E00E942104B394F7CFB21418F42B181C
S113078002C0982C212CA4FE10C0B60180E390E096
S11307900E942104A2FE17C0A1FC03C088E790E0D8
S11307A002C088E590E0B6010CC08A2D867859F025
S11307B0A1FE02C08BE201C080E2A7FC8DE2B6017B
S11307C090E00E942104891438F4B60180E390E09B
S11307D00E9421049A94F7CF8A94F301E80DF11D45
S11307E08081B60190E00E9421048110F5CF22207F
S11307F009F442CEB60180E290E00E9421042A94DA
S1130800F6CFF6018681978102C08FEF9FEF2B967A
S1130810E2E10C94D704FC01059061507040011092
S1130820D8F7809590958E0F9F1F0895FC01615015
S1130830704001900110D8F7809590958E0F9F1FFE
S113084008950F931F93CF93DF93FB01238121FD21
S113085003C08FEF9FEF2CC022FF16C04681578143
S1130860248135814217530744F4A081B1819D014D
S11308702F5F3F4F318320838C93268137812F5FF5
S11308803F4F3783268314C08B01EC01FB010084A6
S1130890F185E02D0995892BE1F6D80116968D9105
S11308A09C911797019617969C938E931697CE0159
S11308B0DF91CF911F910F910895FA01AA27283053
S11308C051F1203181F1E8946F936E7F6E5F7F4F19
S11308D08F4F9F4FAF4FB1E03ED0B4E03CD0670F95
S11308E0781F891F9A1FA11D680F791F8A1F911DE8
S11308F0A11D6A0F711D811D911DA11D20D009F438
S113090068943F912AE0269F11243019305D319379
S1130910DEF6CF010895462F4770405D4193B3E062
S11309200FD0C9F7F6CF462F4F70405D4A3318F009
S1130930495D31FD4052419302D0A9F7EACFB4E0BA
S1130940A6959795879577956795BA95C9F7009772
S11309506105710508959B01AC010A2E0694579513
S1130960479537952795BA95C9F7620F731F841F6A
S1130970951FA01D08952F923F924F925F926F9200
S11309807F928F929F92AF92BF92CF92DF92EF921B
S1130990FF920F931F93CF93DF93CDB7DEB7CA1B9C
S11309A0DB0B0FB6F894DEBF0FBECDBF09942A88C7
S11309B0398848885F846E847D848C849B84AA846F
S11309C0B984C884DF80EE80FD800C811B81AA81FC
S11309D0B981CE0FD11D0FB6F894DEBF0FBECDBFC7
S10B09E0ED010895F894FFCF26
S11309E8010000000300000000A801BA0100004152
S11309F84D50454C205354415254210A0049443A1D
S1130A082025692076616C3A2025690020526563A7
S1130A1865697665642044617461205061636B6123
S1130A286765204F4B2C204461746120436F6465D3
S1130A383A256900204469736361726465642050CF
S10B0A4861636B616765000046
S9030000FC
