S016000041746D656C456D7066656E6465722E7372656385
S11300000C9434000C9451000C9451000C94510045
S11300100C9451000C9498010C9451000C945100D0
S11300200C9451000C9451000C9451000C944C010C
S11300300C9451000C9451000C9451000C945100F8
S11300400C9451000C9451000C9451000C945100E8
S11300500C9451000C9451000C9451000C945100D8
S11300600C9451000C94510011241FBECFEFD4E026
S1130070DEBFCDBF11E0A0E0B1E0E6EFF9E002C0E1
S113008005900D92AC36B107D9F721E0ACE6B1E0AA
S113009001C01D92A337B207E1F70E94B5000C948A
S11300A0F9040C9400002A9A2B9A2D985F9A229AAC
S11300B0239A2498259A5298579A0895AC012D981A
S11300C02A9820E180E090E0552314F42B9A01C093
S11300D02B982D9A880F991F1C9981602D98440F95
S11300E0551F215089F72A9A089587ED90E80E94B8
S11300F05E0089ED92E80E945E0083EC94EA0E941F
S11301005E0087E496EC0E945E0084ED94E90E9410
S11301105E0080EA94E90E945E008CEA92EC0E9400
S11301205E0081E89AEC0E945E0083E894EC0E94F1
S11301305E0080E598E90E945E0080E090EE0E94F7
S11301405E0080E098EC0E945E0080E094EC0E94E7
S11301505E0008954A99FECF80E090E00E945E0020
S113016080E090EB0E945E00089587E190E00E9499
S1130170D1015C985C988FE091E00E9401025C9A46
S11301802FEF8FE392E0215080409040E1F700C0D0
S113019000000E9453000E94750081E89AEC0E94BE
S11301A05E00EFE6F0E0808182608083E1E8F0E0C9
S11301B088E0808380EF91EF9093850080938400A2
S11301C085E0808387B18F6187B98CE088B95698C0
S11301D05E9AE8E6F0E080818460808380E4809326
S11301E06D0078940DE111E00F2EF8E5CF2EF1E0CB
S11301F0DF2EF02D0F2EFCE2AF2EF1E0BF2EF02DFE
S11302009924939483E89AEC0E945E000E94AA00C9
S1130210C82F0E94AA00D82F0E94AA00E82EFC2E04
S1130220FD0E81E89AEC0E945E001F92DF931F92FC
S1130230CF931F930F930E94E4010F900F900F90A0
S11302400F900F900F90EF101CC0CB30D1F4DD2332
S113025029F0DF30B1F49092000102C01092000145
S11302601F92DF93BF92AF920E94E4018FEF93E25B
S11302700197F1F700C000000F900F900F900F90BE
S113028006C0DF92CF920E94E4010F900F908AE0A3
S113029090E00E94FA01B6CF1F920F920FB60F9210
S11302A011248F939F9380EF91EF90938500809317
S11302B0840080910001882351F180916C018F5F4B
S11302C080936C0180916C01803199F028F48E3018
S11302D051F08F3059F025C08A3189F08B3191F07B
S11302E08531F9F409C08AE088B91BC089E088B96E
S11302F018C081E188B915C089E088B912C08BE0C3
S113030088B90FC08CE088B910926C010AC084E1EE
S113031080936C0188B1827088B998B182E0892792
S113032088B99F918F910F900FBE0F901F901895D1
S11303301F920F920FB60F9211248F9380916C012C
S11303408D3020F080916C018B3118F08DE080931A
S11303506C018F910F900FBE0F901F901895CF9343
S1130360C82F8A3019F48DE00E94AF01E0ECF0E070
S1130370808185FFFDCFC093C60080E090E0CF91DF
S11303800895CF93BC01E0ECF0E090819923ECF761
S1130390C091C6008C2F0E94AF018C2F90E0CF91AA
S11303A008959093C5008093C40088E18093C100B0
S11303B086E08093C200EDE6F1E081E091E0918374
S11303C08083938382830895A0E0B0E0EAEEF1E0B5
S11303D00C94D204AE014B5F5F4FFA0161917191AD
S11303E0AF0180916F01909170010E943102E2E0AF
S11303F00C94EE0460916F01709170010E942804C6
S113040008950F931F93CF93DF93E0916F01F091C1
S11304107001238121FF1BC08C01D0E0C0E0F801F2
S113042081918F0160916F0170917001DB011896C9
S1130430ED91FC911997882331F00995892B79F373
S1130440DFEFCFEFECCF8AE00995892B19F08FEF1E
S11304509FEF02C08D2F9C2FDF91CF911F910F91A1
S11304600895ABE0B0E0E7E3F2E00C94C2046C0161
S11304707B018A01FC0117821682838181FFCCC132
S1130480CE0101963C01F6019381F70193FD85911C
S113049093FF81917F01882309F4BAC1853239F42D
S11304A093FD859193FF81917F01853229F4B601F3
S11304B090E00E942804E7CF912C212C312CFFE1FD
S11304C0F315D8F08B3279F038F4803279F0833236
S11304D0A1F4232D20611DC08D3261F0803369F4B5
S11304E0232D216016C0832D8260382EE32DE46015
S11304F03E2E2AC0F32DF8601DC037FC2DC020ED20
S1130500280F2A3040F08E32B9F436FC81C1232DF5
S11305102064322E19C036FE06C08AE0989E200D53
S11305201124922E11C0EAE02E9E200D1124222EB9
S1130530F32DF0623F2E08C08C3621F4832D8068A1
S1130540382E02C0883641F4F70193FD859193FF5C
S113055081917F018111B3CF982F9F7D9554933062
S113056028F40C5F1F4F9FE399830DC0833631F04D
S1130570833771F0833509F059C021C0F8018081B7
S113058089830E5F1F4F88248394912C530113C0D9
S11305902801F2E04F0E511CF801A080B18036FE14
S11305A003C0692D70E002C06FEF7FEFC5010E94A8
S11305B01D044C018201F32DFF773F2E16C0280144
S11305C022E0420E511CF801A080B18036FE03C027
S11305D0692D70E002C06FEF7FEFC5010E94120425
S11305E04C01F32DF0683F2E820133FC1BC0822D99
S11305F090E088169906B0F4B60180E290E00E947B
S113060028042A94F4CFF50137FC859137FE8191B3
S11306105F01B60190E00E94280421102A9421E091
S1130620821A91088114910471F7E8C0843611F09C
S1130630893641F5F80137FE07C0608171818281F6
S113064093810C5F1F4F08C060817181072E000CDD
S1130650880B990B0E5F1F4FF32DFF763F2E97FFEC
S113066009C090958095709561957F4F8F4F9F4FEE
S1130670F0683F2E2AE030E0A3010E946404882E33
S1130680861845C0853731F4232D2F7EB22E2AE0FB
S113069030E025C0932D997FB92E8F36C1F018F420
S11306A0883579F0B5C0803719F0883721F0B0C0AB
S11306B0E92FE061BE2EB4FE0DC0FB2DF460BF2E09
S11306C009C034FE0AC0292F2660B22E06C028E0D5
S11306D030E005C020E130E002C020E132E0F80162
S11306E0B7FE07C060817181828193810C5F1F4FC7
S11306F006C06081718180E090E00E5F1F4FA3010E
S11307000E946404882E8618FB2DFF773F2E36FE48
S11307100DC0232D2E7FA22E891458F434FE0BC055
S113072032FC09C0832D8E7EA82E05C0B82CA32CC4
S113073003C0B82C01C0B92CA4FE0FC0FE01E80D03
S1130740F11D8081803321F49A2D997EA92E09C050
S1130750A2FE06C0B394B39404C08A2D867809F02F
S1130760B394A3FC11C0A0FE06C0B21488F4280CF4
S1130770922C9B180EC0B21460F4B60180E290E093
S11307800E942804B394F7CFB21418F42B1802C0B3
S1130790982C212CA4FE10C0B60180E390E00E94A6
S11307A02804A2FE17C0A1FC03C088E790E002C0A1
S11307B088E590E0B6010CC08A2D867859F0A1FE38
S11307C002C08BE201C080E2A7FC8DE2B60190E09A
S11307D00E942804891438F4B60180E390E00E9452
S11307E028049A94F7CF8A94F301E80DF11D8081CF
S11307F0B60190E00E9428048110F5CF222009F46C
S113080042CEB60180E290E00E9428042A94F6CFFA
S1130810F6018681978102C08FEF9FEF2B96E2E16C
S11308200C94DE04FC010590615070400110D8F76F
S1130830809590958E0F9F1F0895FC016150704024
S113084001900110D8F7809590958E0F9F1F089501
S11308500F931F93CF93DF93FB01238121FD03C0EB
S11308608FEF9FEF2CC022FF16C046815781248151
S113087035814217530744F4A081B1819D012F5F54
S11308803F4F318320838C93268137812F5F3F4FE5
S11308903783268314C08B01EC01FB010084F185AE
S11308A0E02D0995892BE1F6D80116968D919C913E
S11308B01797019617969C938E931697CE01DF9106
S11308C0CF911F910F910895FA01AA27283051F171
S11308D0203181F1E8946F936E7F6E5F7F4F8F4F6D
S11308E09F4FAF4FB1E03ED0B4E03CD0670F781FCC
S11308F0891F9A1FA11D680F791F8A1F911DA11DB1
S11309006A0F711D811D911DA11D20D009F46894E9
S11309103F912AE0269F11243019305D3193DEF691
S1130920CF010895462F4770405D4193B3E00FD047
S1130930C9F7F6CF462F4F70405D4A3318F0495D32
S113094031FD4052419302D0A9F7EACFB4E0A69515
S11309509795879577956795BA95C9F70097610537
S1130960710508959B01AC010A2E0694579547958D
S113097037952795BA95C9F7620F731F841F951F82
S1130980A01D08952F923F924F925F926F927F9293
S11309908F929F92AF92BF92CF92DF92EF92FF928B
S11309A00F931F93CF93DF93CDB7DEB7CA1BDB0B37
S11309B00FB6F894DEBF0FBECDBF09942A883988DC
S11309C048885F846E847D848C849B84AA84B984E3
S11309D0C884DF80EE80FD800C811B81AA81B981EF
S11309E0CE0FD11D0FB6F894DEBF0FBECDBFED0103
S10909F00895F894FFCF06
S11309F6010000000300000000AF01C10100004136
S1130A064D50454C205354415254210A0049443A0E
S1130A162025692076616C3A202569002052656399
S1130A2665697665642044617461205061636B6115
S1130A366765204F4B2C204461746120436F6465C5
S1130A463A20307830255800204469736361726413
S10F0A566564205061636B6167650000FB
S9030000FC
