S016000041746D656C456D7066656E6465722E7372656385
S11300000C9434000C9451000C9451000C94510045
S11300100C9451000C945D010C9451000C9451000B
S11300200C9451000C9451000C9451000C94140144
S11300300C9451000C9451000C9451000C945100F8
S11300400C9451000C9451000C9451000C945100E8
S11300500C9451000C9451000C9451000C945100D8
S11300600C9451000C94510011241FBECFEFD4E026
S1130070DEBFCDBF11E0A0E0B1E0E6EBF3E002C0EB
S113008005900D92A432B107D9F721E0A4E2B1E0C2
S113009001C01D92AB32B207E1F70E94B5000C9487
S11300A0D9010C9400002A9A2B9A2D985F9A229ACF
S11300B0239A2498259A5298579A0895AC012D981A
S11300C02A9820E180E090E0552314F42B9A01C093
S11300D02B982D9A880F991F1C9981602D98440F95
S11300E0551F215089F72A9A089587ED90E80E94B8
S11300F05E0089ED92E80E945E0083EC94EA0E941F
S11301005E0087E496EC0E945E0084ED94E90E9410
S11301105E0080EA94E90E945E008CEA92EC0E9400
S11301205E0081E89AEC0E945E0083E894EC0E94F1
S11301305E0080E598E90E945E0080E090EE0E94F7
S11301405E0080E098EC0E945E0080E094EC0E94E7
S11301505E0008954A99FECF80E090E00E945E0020
S113016080E090EB0E945E00089587E190E00E9499
S113017096015C985C988FE091E00E94A9015C9ADA
S11301802FEF8FE392E0215080409040E1F700C0D0
S113019000000E9453000E94750081E89AEC0E94BE
S11301A05E00EFE6F0E0808182608083E1E8F0E0C9
S11301B088E0808380EF91EF9093850080938400A2
S11301C085E0808387B18F6187B98CE088B95298C4
S11301D05A9AE8E6F0E080818460808384E080932A
S11301E06D00789483E89AEC0E945E00C0E1D0E050
S11301F00E94AA00D80FC150D9F70E94AA00C82FA4
S113020081E89AEC0E945E00CD13ECCFD857D093CE
S113021000018BE191E00E94A9018FEF93E2019725
S1130220F1F700C00000DECF1F920F920FB60F92BD
S113023011248F939F9380EF91EF90938500809387
S1130240840080910001882351F1809124018F5F03
S11302508093240180912401803199F028F48E3018
S113026051F08F3059F022C08A3189F08B3191F0EE
S11302708531E1F409C08AE088B918C089E088B9F9
S113028015C081E188B912C089E088B90FC08BE03C
S113029088B90CC08CE088B91092240107C088B1D9
S11302A0827088B998B182E0892788B99F918F912B
S11302B00F900FBE0F901F9018951F920F920FB6BC
S11302C00F9211248F93809124018D3020F080911E
S11302D024018B3118F08DE0809324018F910F90CD
S11302E00FBE0F901F901895CF93C82F8A3019F422
S11302F08DE00E947401E0ECF0E0808185FFFDCF89
S1130300C093C60080E090E0CF910895CF93BC01E4
S1130310E0ECF0E090819923ECF7C091C6008C2FBB
S11303200E9474018C2F90E0CF9108959093C500A2
S11303308093C40088E18093C10086E08093C2006A
S1130340E5E2F1E081E091E091838083938382830D
S113035008950F931F93CF93DF93E0912701F091BA
S11303602801238121FF1BC08C01D0E0C0E0F801EB
S113037081918F016091270170912801DB0118960A
S1130380ED91FC911997882331F00995892B79F324
S1130390DFEFCFEFECCF8AE00995892B19F08FEFCF
S11303A09FEF02C08D2F9C2FDF91CF911F910F9152
S10903B00895F894FFCF4C
S11303B601000000030000000074018601000052E1
S11303C6656365697665202E2E2E0044617461206E
S10703D64F4B000085
S9030000FC
