S00E00007065656565702E73726563A2
S11300000C9434000C943E000C943E000C943E007E
S11300100C943E000C943E000C943E000C943E0064
S11300200C943E000C943E000C943E000C945E0034
S11300300C943E000C943E000C943E000C943E0044
S11300400C943E000C943E000C943E000C943E0034
S11300500C943E000C943E000C943E000C943E0024
S11300600C943E000C943E0011241FBECFEFD4E04C
S1130070DEBFCDBF0E9440000C9488000C940000A9
S1130080EFE6F0E080818260808382E084B9229A86
S113009082E88093800089E1809381007894E6E887
S11300A0F0E089E999E0918380838081918196953C
S11300B087959093890080938800FFCF1F920F92B9
S11300C00FB60F9211242F938F939F93EF93FF9367
S11300D080918600909187008A39994940F0E6E83A
S11300E0F0E08081918101979183808307C0E6E8E5
S11300F0F0E080819181019691838083FF91EF915B
S11301009F918F912F910F900FBE0F901F90189574
S1070110F894FFCF8D
S9030000FC
