S01700004763634170706C69636174696F6E332E7372656359
S11300000C9434000C943E000C943E000C943E007E
S11300100C943E000C943E000C943E000C943E0064
S11300200C943E000C943E000C943E000C943E0054
S11300300C943E000C943E000C943E000C943E0044
S11300400C943E000C943E000C943E000C943E0034
S11300500C943E000C943E000C943E000C943E0024
S11300600C943E000C943E0011241FBECFEFD4E04C
S1130070DEBFCDBF0E946B000C948A000C9400007C
S113008080E480937C00EAE7F0E085E0808380816F
S113009080688083808180648083808186FDFDCF39
S11300A0E8E7F0E080819181918380830895ECE713
S11300B0F0E09081907F8F70892B8083EAE7F0E0F5
S11300C0808180648083808186FDFDCF809178006B
S11300D090917900089584B18F6084B90E944000A2
S11300E083E00E9457008E3C910510F0299A03C0CA
S11300F025B1257025B98E3F910510F02A9A03C0C9
S113010025B1237025B98F38910510F0289AE8CFCE
S10B011015B8E6CFF894FFCF07
S9030000FC
